{
  "_format": "hh-sol-artifact-1",
  "contractName": "EventTicket",
  "sourceName": "contracts/EventTicket.sol",
  "abi": [
    {
      "inputs": [
        {
          "internalType": "string",
          "name": "_name",
          "type": "string"
        },
        {
          "internalType": "string",
          "name": "_symbol",
          "type": "string"
        },
        {
          "internalType": "uint256",
          "name": "_price",
          "type": "uint256"
        },
        {
          "internalType": "uint256",
          "name": "_maxTickets",
          "type": "uint256"
        }
      ],
      "stateMutability": "nonpayable",
      "type": "constructor"
    },
    {
      "inputs": [
        {
          "internalType": "address",
          "name": "sender",
          "type": "address"
        },
        {
          "internalType": "uint256",
          "name": "tokenId",
          "type": "uint256"
        },
        {
          "internalType": "address",
          "name": "owner",
          "type": "address"
        }
      ],
      "name": "ERC721IncorrectOwner",
      "type": "error"
    },
    {
      "inputs": [
        {
          "internalType": "address",
          "name": "operator",
          "type": "address"
        },
        {
          "internalType": "uint256",
          "name": "tokenId",
          "type": "uint256"
        }
      ],
      "name": "ERC721InsufficientApproval",
      "type": "error"
    },
    {
      "inputs": [
        {
          "internalType": "address",
          "name": "approver",
          "type": "address"
        }
      ],
      "name": "ERC721InvalidApprover",
      "type": "error"
    },
    {
      "inputs": [
        {
          "internalType": "address",
          "name": "operator",
          "type": "address"
        }
      ],
      "name": "ERC721InvalidOperator",
      "type": "error"
    },
    {
      "inputs": [
        {
          "internalType": "address",
          "name": "owner",
          "type": "address"
        }
      ],
      "name": "ERC721InvalidOwner",
      "type": "error"
    },
    {
      "inputs": [
        {
          "internalType": "address",
          "name": "receiver",
          "type": "address"
        }
      ],
      "name": "ERC721InvalidReceiver",
      "type": "error"
    },
    {
      "inputs": [
        {
          "internalType": "address",
          "name": "sender",
          "type": "address"
        }
      ],
      "name": "ERC721InvalidSender",
      "type": "error"
    },
    {
      "inputs": [
        {
          "internalType": "uint256",
          "name": "tokenId",
          "type": "uint256"
        }
      ],
      "name": "ERC721NonexistentToken",
      "type": "error"
    },
    {
      "inputs": [
        {
          "internalType": "address",
          "name": "owner",
          "type": "address"
        }
      ],
      "name": "OwnableInvalidOwner",
      "type": "error"
    },
    {
      "inputs": [
        {
          "internalType": "address",
          "name": "account",
          "type": "address"
        }
      ],
      "name": "OwnableUnauthorizedAccount",
      "type": "error"
    },
    {
      "anonymous": false,
      "inputs": [
        {
          "indexed": true,
          "internalType": "address",
          "name": "owner",
          "type": "address"
        },
        {
          "indexed": true,
          "internalType": "address",
          "name": "approved",
          "type": "address"
        },
        {
          "indexed": true,
          "internalType": "uint256",
          "name": "tokenId",
          "type": "uint256"
        }
      ],
      "name": "Approval",
      "type": "event"
    },
    {
      "anonymous": false,
      "inputs": [
        {
          "indexed": true,
          "internalType": "address",
          "name": "owner",
          "type": "address"
        },
        {
          "indexed": true,
          "internalType": "address",
          "name": "operator",
          "type": "address"
        },
        {
          "indexed": false,
          "internalType": "bool",
          "name": "approved",
          "type": "bool"
        }
      ],
      "name": "ApprovalForAll",
      "type": "event"
    },
    {
      "anonymous": false,
      "inputs": [
        {
          "indexed": true,
          "internalType": "address",
          "name": "previousOwner",
          "type": "address"
        },
        {
          "indexed": true,
          "internalType": "address",
          "name": "newOwner",
          "type": "address"
        }
      ],
      "name": "OwnershipTransferred",
      "type": "event"
    },
    {
      "anonymous": false,
      "inputs": [
        {
          "indexed": false,
          "internalType": "uint256",
          "name": "tokenId",
          "type": "uint256"
        },
        {
          "indexed": false,
          "internalType": "uint256",
          "name": "price",
          "type": "uint256"
        },
        {
          "indexed": false,
          "internalType": "address",
          "name": "seller",
          "type": "address"
        }
      ],
      "name": "TicketListed",
      "type": "event"
    },
    {
      "anonymous": false,
      "inputs": [
        {
          "indexed": false,
          "internalType": "uint256",
          "name": "tokenId",
          "type": "uint256"
        },
        {
          "indexed": false,
          "internalType": "address",
          "name": "owner",
          "type": "address"
        }
      ],
      "name": "TicketMinted",
      "type": "event"
    },
    {
      "anonymous": false,
      "inputs": [
        {
          "indexed": false,
          "internalType": "uint256",
          "name": "tokenId",
          "type": "uint256"
        },
        {
          "indexed": false,
          "internalType": "uint256",
          "name": "price",
          "type": "uint256"
        },
        {
          "indexed": false,
          "internalType": "address",
          "name": "from",
          "type": "address"
        },
        {
          "indexed": false,
          "internalType": "address",
          "name": "to",
          "type": "address"
        }
      ],
      "name": "TicketSold",
      "type": "event"
    },
    {
      "anonymous": false,
      "inputs": [
        {
          "indexed": true,
          "internalType": "address",
          "name": "from",
          "type": "address"
        },
        {
          "indexed": true,
          "internalType": "address",
          "name": "to",
          "type": "address"
        },
        {
          "indexed": true,
          "internalType": "uint256",
          "name": "tokenId",
          "type": "uint256"
        }
      ],
      "name": "Transfer",
      "type": "event"
    },
    {
      "inputs": [
        {
          "internalType": "address",
          "name": "to",
          "type": "address"
        },
        {
          "internalType": "uint256",
          "name": "tokenId",
          "type": "uint256"
        }
      ],
      "name": "approve",
      "outputs": [],
      "stateMutability": "nonpayable",
      "type": "function"
    },
    {
      "inputs": [
        {
          "internalType": "address",
          "name": "owner",
          "type": "address"
        }
      ],
      "name": "balanceOf",
      "outputs": [
        {
          "internalType": "uint256",
          "name": "",
          "type": "uint256"
        }
      ],
      "stateMutability": "view",
      "type": "function"
    },
    {
      "inputs": [
        {
          "internalType": "uint256",
          "name": "_tokenId",
          "type": "uint256"
        }
      ],
      "name": "buyResaleTicket",
      "outputs": [],
      "stateMutability": "payable",
      "type": "function"
    },
    {
      "inputs": [],
      "name": "currentSupply",
      "outputs": [
        {
          "internalType": "uint256",
          "name": "",
          "type": "uint256"
        }
      ],
      "stateMutability": "view",
      "type": "function"
    },
    {
      "inputs": [
        {
          "internalType": "uint256",
          "name": "tokenId",
          "type": "uint256"
        }
      ],
      "name": "getApproved",
      "outputs": [
        {
          "internalType": "address",
          "name": "",
          "type": "address"
        }
      ],
      "stateMutability": "view",
      "type": "function"
    },
    {
      "inputs": [
        {
          "internalType": "address",
          "name": "owner",
          "type": "address"
        },
        {
          "internalType": "address",
          "name": "operator",
          "type": "address"
        }
      ],
      "name": "isApprovedForAll",
      "outputs": [
        {
          "internalType": "bool",
          "name": "",
          "type": "bool"
        }
      ],
      "stateMutability": "view",
      "type": "function"
    },
    {
      "inputs": [
        {
          "internalType": "uint256",
          "name": "_tokenId",
          "type": "uint256"
        },
        {
          "internalType": "uint256",
          "name": "_price",
          "type": "uint256"
        }
      ],
      "name": "listTicketForSale",
      "outputs": [],
      "stateMutability": "nonpayable",
      "type": "function"
    },
    {
      "inputs": [],
      "name": "maxResalePrice",
      "outputs": [
        {
          "internalType": "uint256",
          "name": "",
          "type": "uint256"
        }
      ],
      "stateMutability": "view",
      "type": "function"
    },
    {
      "inputs": [],
      "name": "maxTickets",
      "outputs": [
        {
          "internalType": "uint256",
          "name": "",
          "type": "uint256"
        }
      ],
      "stateMutability": "view",
      "type": "function"
    },
    {
      "inputs": [],
      "name": "mintTicket",
      "outputs": [],
      "stateMutability": "payable",
      "type": "function"
    },
    {
      "inputs": [],
      "name": "name",
      "outputs": [
        {
          "internalType": "string",
          "name": "",
          "type": "string"
        }
      ],
      "stateMutability": "view",
      "type": "function"
    },
    {
      "inputs": [],
      "name": "owner",
      "outputs": [
        {
          "internalType": "address",
          "name": "",
          "type": "address"
        }
      ],
      "stateMutability": "view",
      "type": "function"
    },
    {
      "inputs": [
        {
          "internalType": "uint256",
          "name": "tokenId",
          "type": "uint256"
        }
      ],
      "name": "ownerOf",
      "outputs": [
        {
          "internalType": "address",
          "name": "",
          "type": "address"
        }
      ],
      "stateMutability": "view",
      "type": "function"
    },
    {
      "inputs": [],
      "name": "renounceOwnership",
      "outputs": [],
      "stateMutability": "nonpayable",
      "type": "function"
    },
    {
      "inputs": [
        {
          "internalType": "uint256",
          "name": "",
          "type": "uint256"
        }
      ],
      "name": "resaleListings",
      "outputs": [
        {
          "internalType": "bool",
          "name": "isForSale",
          "type": "bool"
        },
        {
          "internalType": "uint256",
          "name": "price",
          "type": "uint256"
        },
        {
          "internalType": "address",
          "name": "seller",
          "type": "address"
        }
      ],
      "stateMutability": "view",
      "type": "function"
    },
    {
      "inputs": [
        {
          "internalType": "address",
          "name": "from",
          "type": "address"
        },
        {
          "internalType": "address",
          "name": "to",
          "type": "address"
        },
        {
          "internalType": "uint256",
          "name": "tokenId",
          "type": "uint256"
        }
      ],
      "name": "safeTransferFrom",
      "outputs": [],
      "stateMutability": "nonpayable",
      "type": "function"
    },
    {
      "inputs": [
        {
          "internalType": "address",
          "name": "from",
          "type": "address"
        },
        {
          "internalType": "address",
          "name": "to",
          "type": "address"
        },
        {
          "internalType": "uint256",
          "name": "tokenId",
          "type": "uint256"
        },
        {
          "internalType": "bytes",
          "name": "data",
          "type": "bytes"
        }
      ],
      "name": "safeTransferFrom",
      "outputs": [],
      "stateMutability": "nonpayable",
      "type": "function"
    },
    {
      "inputs": [
        {
          "internalType": "address",
          "name": "operator",
          "type": "address"
        },
        {
          "internalType": "bool",
          "name": "approved",
          "type": "bool"
        }
      ],
      "name": "setApprovalForAll",
      "outputs": [],
      "stateMutability": "nonpayable",
      "type": "function"
    },
    {
      "inputs": [
        {
          "internalType": "bytes4",
          "name": "interfaceId",
          "type": "bytes4"
        }
      ],
      "name": "supportsInterface",
      "outputs": [
        {
          "internalType": "bool",
          "name": "",
          "type": "bool"
        }
      ],
      "stateMutability": "view",
      "type": "function"
    },
    {
      "inputs": [],
      "name": "symbol",
      "outputs": [
        {
          "internalType": "string",
          "name": "",
          "type": "string"
        }
      ],
      "stateMutability": "view",
      "type": "function"
    },
    {
      "inputs": [],
      "name": "ticketPrice",
      "outputs": [
        {
          "internalType": "uint256",
          "name": "",
          "type": "uint256"
        }
      ],
      "stateMutability": "view",
      "type": "function"
    },
    {
      "inputs": [
        {
          "internalType": "uint256",
          "name": "tokenId",
          "type": "uint256"
        }
      ],
      "name": "tokenURI",
      "outputs": [
        {
          "internalType": "string",
          "name": "",
          "type": "string"
        }
      ],
      "stateMutability": "view",
      "type": "function"
    },
    {
      "inputs": [
        {
          "internalType": "address",
          "name": "from",
          "type": "address"
        },
        {
          "internalType": "address",
          "name": "to",
          "type": "address"
        },
        {
          "internalType": "uint256",
          "name": "tokenId",
          "type": "uint256"
        }
      ],
      "name": "transferFrom",
      "outputs": [],
      "stateMutability": "nonpayable",
      "type": "function"
    },
    {
      "inputs": [
        {
          "internalType": "address",
          "name": "newOwner",
          "type": "address"
        }
      ],
      "name": "transferOwnership",
      "outputs": [],
      "stateMutability": "nonpayable",
      "type": "function"
    },
    {
      "inputs": [],
      "name": "withdraw",
      "outputs": [],
      "stateMutability": "nonpayable",
      "type": "function"
    }
  ],
  "bytecode": "0x60e06040523480156200001157600080fd5b5060405162003819380380620038198339818101604052810190620000379190620003c1565b33848481600090816200004b9190620006b2565b5080600190816200005d9190620006b2565b505050600073ffffffffffffffffffffffffffffffffffffffff168173ffffffffffffffffffffffffffffffffffffffff1603620000d55760006040517f1e4fbdf7000000000000000000000000000000000000000000000000000000008152600401620000cc9190620007de565b60405180910390fd5b620000e6816200012d60201b60201c565b5081608081815250508060a0818152505060646096836200010891906200082a565b620001149190620008a4565b60c08181525050600060078190555050505050620008dc565b6000600660009054906101000a900473ffffffffffffffffffffffffffffffffffffffff16905081600660006101000a81548173ffffffffffffffffffffffffffffffffffffffff021916908373ffffffffffffffffffffffffffffffffffffffff1602179055508173ffffffffffffffffffffffffffffffffffffffff168173ffffffffffffffffffffffffffffffffffffffff167f8be0079c531659141344cd1fd0a4f28419497f9722a3daafe3b4186f6b6457e060405160405180910390a35050565b6000604051905090565b600080fd5b600080fd5b600080fd5b600080fd5b6000601f19601f8301169050919050565b7f4e487b7100000000000000000000000000000000000000000000000000000000600052604160045260246000fd5b6200025c8262000211565b810181811067ffffffffffffffff821117156200027e576200027d62000222565b5b80604052505050565b600062000293620001f3565b9050620002a1828262000251565b919050565b600067ffffffffffffffff821115620002c457620002c362000222565b5b620002cf8262000211565b9050602081019050919050565b60005b83811015620002fc578082015181840152602081019050620002df565b60008484015250505050565b60006200031f6200031984620002a6565b62000287565b9050828152602081018484840111156200033e576200033d6200020c565b5b6200034b848285620002dc565b509392505050565b600082601f8301126200036b576200036a62000207565b5b81516200037d84826020860162000308565b91505092915050565b6000819050919050565b6200039b8162000386565b8114620003a757600080fd5b50565b600081519050620003bb8162000390565b92915050565b60008060008060808587031215620003de57620003dd620001fd565b5b600085015167ffffffffffffffff811115620003ff57620003fe62000202565b5b6200040d8782880162000353565b945050602085015167ffffffffffffffff81111562000431576200043062000202565b5b6200043f8782880162000353565b93505060406200045287828801620003aa565b92505060606200046587828801620003aa565b91505092959194509250565b600081519050919050565b7f4e487b7100000000000000000000000000000000000000000000000000000000600052602260045260246000fd5b60006002820490506001821680620004c457607f821691505b602082108103620004da57620004d96200047c565b5b50919050565b60008190508160005260206000209050919050565b60006020601f8301049050919050565b600082821b905092915050565b600060088302620005447fffffffffffffffffffffffffffffffffffffffffffffffffffffffffffffffff8262000505565b62000550868362000505565b95508019841693508086168417925050509392505050565b6000819050919050565b6000620005936200058d620005878462000386565b62000568565b62000386565b9050919050565b6000819050919050565b620005af8362000572565b620005c7620005be826200059a565b84845462000512565b825550505050565b600090565b620005de620005cf565b620005eb818484620005a4565b505050565b5b81811015620006135762000607600082620005d4565b600181019050620005f1565b5050565b601f82111562000662576200062c81620004e0565b6200063784620004f5565b8101602085101562000647578190505b6200065f6200065685620004f5565b830182620005f0565b50505b505050565b600082821c905092915050565b6000620006876000198460080262000667565b1980831691505092915050565b6000620006a2838362000674565b9150826002028217905092915050565b620006bd8262000471565b67ffffffffffffffff811115620006d957620006d862000222565b5b620006e58254620004ab565b620006f282828562000617565b600060209050601f8311600181146200072a576000841562000715578287015190505b62000721858262000694565b86555062000791565b601f1984166200073a86620004e0565b60005b8281101562000764578489015182556001820191506020850194506020810190506200073d565b8683101562000784578489015162000780601f89168262000674565b8355505b6001600288020188555050505b505050505050565b600073ffffffffffffffffffffffffffffffffffffffff82169050919050565b6000620007c68262000799565b9050919050565b620007d881620007b9565b82525050565b6000602082019050620007f56000830184620007cd565b92915050565b7f4e487b7100000000000000000000000000000000000000000000000000000000600052601160045260246000fd5b6000620008378262000386565b9150620008448362000386565b9250828202620008548162000386565b915082820484148315176200086e576200086d620007fb565b5b5092915050565b7f4e487b7100000000000000000000000000000000000000000000000000000000600052601260045260246000fd5b6000620008b18262000386565b9150620008be8362000386565b925082620008d157620008d062000875565b5b828204905092915050565b60805160a05160c051612ef86200092160003960008181610aba015261102e015260008181610bc90152610e990152600081816107600152610c2b0152612ef86000f3fe6080604052600436106101665760003560e01c806370a08231116100d1578063a22cb4651161008a578063c87b56dd11610064578063c87b56dd146104ec578063d524d32d14610529578063e985e9c514610552578063f2fde38b1461058f57610166565b8063a22cb4651461045b578063b41b4bd414610484578063b88d4fde146104c357610166565b806370a082311461035b578063715018a614610398578063771282f6146103af5780638da5cb5b146103da57806395d89b41146104055780639b8947031461043057610166565b806323b872dd1161012357806323b872dd1461028057806339e9e8eb146102a95780633ccfd60b146102d457806342842e0e146102eb578063573c80fa146103145780636352211e1461031e57610166565b806301ffc9a71461016b57806306fdde03146101a8578063081812fc146101d3578063095ea7b3146102105780631209b1f6146102395780631d9c5d5c14610264575b600080fd5b34801561017757600080fd5b50610192600480360381019061018d91906121e3565b6105b8565b60405161019f919061222b565b60405180910390f35b3480156101b457600080fd5b506101bd61069a565b6040516101ca91906122d6565b60405180910390f35b3480156101df57600080fd5b506101fa60048036038101906101f5919061232e565b61072c565b604051610207919061239c565b60405180910390f35b34801561021c57600080fd5b50610237600480360381019061023291906123e3565b610748565b005b34801561024557600080fd5b5061024e61075e565b60405161025b9190612432565b60405180910390f35b61027e6004803603810190610279919061232e565b610782565b005b34801561028c57600080fd5b506102a760048036038101906102a2919061244d565b6109b6565b005b3480156102b557600080fd5b506102be610ab8565b6040516102cb9190612432565b60405180910390f35b3480156102e057600080fd5b506102e9610adc565b005b3480156102f757600080fd5b50610312600480360381019061030d919061244d565b610ba0565b005b61031c610bc0565b005b34801561032a57600080fd5b506103456004803603810190610340919061232e565b610cf1565b604051610352919061239c565b60405180910390f35b34801561036757600080fd5b50610382600480360381019061037d91906124a0565b610d03565b60405161038f9190612432565b60405180910390f35b3480156103a457600080fd5b506103ad610dbd565b005b3480156103bb57600080fd5b506103c4610dd1565b6040516103d19190612432565b60405180910390f35b3480156103e657600080fd5b506103ef610ddb565b6040516103fc919061239c565b60405180910390f35b34801561041157600080fd5b5061041a610e05565b60405161042791906122d6565b60405180910390f35b34801561043c57600080fd5b50610445610e97565b6040516104529190612432565b60405180910390f35b34801561046757600080fd5b50610482600480360381019061047d91906124f9565b610ebb565b005b34801561049057600080fd5b506104ab60048036038101906104a6919061232e565b610ed1565b6040516104ba93929190612539565b60405180910390f35b3480156104cf57600080fd5b506104ea60048036038101906104e591906126a5565b610f28565b005b3480156104f857600080fd5b50610513600480360381019061050e919061232e565b610f4d565b60405161052091906122d6565b60405180910390f35b34801561053557600080fd5b50610550600480360381019061054b9190612728565b610fb6565b005b34801561055e57600080fd5b5061057960048036038101906105749190612768565b611193565b604051610586919061222b565b60405180910390f35b34801561059b57600080fd5b506105b660048036038101906105b191906124a0565b611227565b005b60007f80ac58cd000000000000000000000000000000000000000000000000000000007bffffffffffffffffffffffffffffffffffffffffffffffffffffffff1916827bffffffffffffffffffffffffffffffffffffffffffffffffffffffff1916148061068357507f5b5e139f000000000000000000000000000000000000000000000000000000007bffffffffffffffffffffffffffffffffffffffffffffffffffffffff1916827bffffffffffffffffffffffffffffffffffffffffffffffffffffffff1916145b806106935750610692826112ad565b5b9050919050565b6060600080546106a9906127d7565b80601f01602080910402602001604051908101604052809291908181526020018280546106d5906127d7565b80156107225780601f106106f757610100808354040283529160200191610722565b820191906000526020600020905b81548152906001019060200180831161070557829003601f168201915b5050505050905090565b600061073782611317565b506107418261139f565b9050919050565b61075a82826107556113dc565b6113e4565b5050565b7f000000000000000000000000000000000000000000000000000000000000000081565b60006008600083815260200190815260200160002090508060000160009054906101000a900460ff166107ea576040517f08c379a00000000000000000000000000000000000000000000000000000000081526004016107e190612854565b60405180910390fd5b80600101543414610830576040517f08c379a0000000000000000000000000000000000000000000000000000000008152600401610827906128c0565b60405180910390fd5b60008160000160006101000a81548160ff02191690831515021790555060008160020160009054906101000a900473ffffffffffffffffffffffffffffffffffffffff1673ffffffffffffffffffffffffffffffffffffffff163460405161089790612911565b60006040518083038185875af1925050503d80600081146108d4576040519150601f19603f3d011682016040523d82523d6000602084013e6108d9565b606091505b505090508061091d576040517f08c379a000000000000000000000000000000000000000000000000000000000815260040161091490612972565b60405180910390fd5b61094c8260020160009054906101000a900473ffffffffffffffffffffffffffffffffffffffff1633856109b6565b7f44f19a44b8c509adc281ec35927694f6d25e501d0de1764890ab0637b8dcda488383600101548460020160009054906101000a900473ffffffffffffffffffffffffffffffffffffffff16336040516109a99493929190612992565b60405180910390a1505050565b600073ffffffffffffffffffffffffffffffffffffffff168273ffffffffffffffffffffffffffffffffffffffff1603610a285760006040517f64a0ae92000000000000000000000000000000000000000000000000000000008152600401610a1f919061239c565b60405180910390fd5b6000610a3c8383610a376113dc565b6113f6565b90508373ffffffffffffffffffffffffffffffffffffffff168173ffffffffffffffffffffffffffffffffffffffff1614610ab2578382826040517f64283d7b000000000000000000000000000000000000000000000000000000008152600401610aa9939291906129d7565b60405180910390fd5b50505050565b7f000000000000000000000000000000000000000000000000000000000000000081565b610ae4611610565b60004790506000610af3610ddb565b73ffffffffffffffffffffffffffffffffffffffff1682604051610b1690612911565b60006040518083038185875af1925050503d8060008114610b53576040519150601f19603f3d011682016040523d82523d6000602084013e610b58565b606091505b5050905080610b9c576040517f08c379a0000000000000000000000000000000000000000000000000000000008152600401610b9390612a5a565b60405180910390fd5b5050565b610bbb83838360405180602001604052806000815250610f28565b505050565b600060075490507f00000000000000000000000000000000000000000000000000000000000000008110610c29576040517f08c379a0000000000000000000000000000000000000000000000000000000008152600401610c2090612ac6565b60405180910390fd5b7f00000000000000000000000000000000000000000000000000000000000000003414610c8b576040517f08c379a0000000000000000000000000000000000000000000000000000000008152600401610c8290612b32565b60405180910390fd5b60076000815480929190610c9e90612b81565b919050555060006007549050610cb43382611697565b7f21c3ad7994b754affe27828ad7ab1f306d7a99ab4dbc743ed56d2b2f82620b448133604051610ce5929190612bc9565b60405180910390a15050565b6000610cfc82611317565b9050919050565b60008073ffffffffffffffffffffffffffffffffffffffff168273ffffffffffffffffffffffffffffffffffffffff1603610d765760006040517f89c62b64000000000000000000000000000000000000000000000000000000008152600401610d6d919061239c565b60405180910390fd5b600360008373ffffffffffffffffffffffffffffffffffffffff1673ffffffffffffffffffffffffffffffffffffffff168152602001908152602001600020549050919050565b610dc5611610565b610dcf60006116b5565b565b6000600754905090565b6000600660009054906101000a900473ffffffffffffffffffffffffffffffffffffffff16905090565b606060018054610e14906127d7565b80601f0160208091040260200160405190810160405280929190818152602001828054610e40906127d7565b8015610e8d5780601f10610e6257610100808354040283529160200191610e8d565b820191906000526020600020905b815481529060010190602001808311610e7057829003601f168201915b5050505050905090565b7f000000000000000000000000000000000000000000000000000000000000000081565b610ecd610ec66113dc565b838361177b565b5050565b60086020528060005260406000206000915090508060000160009054906101000a900460ff16908060010154908060020160009054906101000a900473ffffffffffffffffffffffffffffffffffffffff16905083565b610f338484846109b6565b610f47610f3e6113dc565b858585856118ea565b50505050565b6060610f5882611317565b506000610f63611a9b565b90506000815111610f835760405180602001604052806000815250610fae565b80610f8d84611ab2565b604051602001610f9e929190612c2e565b6040516020818303038152906040525b915050919050565b3373ffffffffffffffffffffffffffffffffffffffff16610fd683610cf1565b73ffffffffffffffffffffffffffffffffffffffff161461102c576040517f08c379a000000000000000000000000000000000000000000000000000000000815260040161102390612c9e565b60405180910390fd5b7f000000000000000000000000000000000000000000000000000000000000000081111561108f576040517f08c379a000000000000000000000000000000000000000000000000000000000815260040161108690612d30565b60405180910390fd5b6110993083610748565b60405180606001604052806001151581526020018281526020013373ffffffffffffffffffffffffffffffffffffffff168152506008600084815260200190815260200160002060008201518160000160006101000a81548160ff0219169083151502179055506020820151816001015560408201518160020160006101000a81548173ffffffffffffffffffffffffffffffffffffffff021916908373ffffffffffffffffffffffffffffffffffffffff1602179055509050507f5ddeb20641397a4006800e63273f4f75df6e6964e4456220df00032d3d160da782823360405161118793929190612d50565b60405180910390a15050565b6000600560008473ffffffffffffffffffffffffffffffffffffffff1673ffffffffffffffffffffffffffffffffffffffff16815260200190815260200160002060008373ffffffffffffffffffffffffffffffffffffffff1673ffffffffffffffffffffffffffffffffffffffff16815260200190815260200160002060009054906101000a900460ff16905092915050565b61122f611610565b600073ffffffffffffffffffffffffffffffffffffffff168173ffffffffffffffffffffffffffffffffffffffff16036112a15760006040517f1e4fbdf7000000000000000000000000000000000000000000000000000000008152600401611298919061239c565b60405180910390fd5b6112aa816116b5565b50565b60007f01ffc9a7000000000000000000000000000000000000000000000000000000007bffffffffffffffffffffffffffffffffffffffffffffffffffffffff1916827bffffffffffffffffffffffffffffffffffffffffffffffffffffffff1916149050919050565b60008061132383611b80565b9050600073ffffffffffffffffffffffffffffffffffffffff168173ffffffffffffffffffffffffffffffffffffffff160361139657826040517f7e27328900000000000000000000000000000000000000000000000000000000815260040161138d9190612432565b60405180910390fd5b80915050919050565b60006004600083815260200190815260200160002060009054906101000a900473ffffffffffffffffffffffffffffffffffffffff169050919050565b600033905090565b6113f18383836001611bbd565b505050565b60008061140284611b80565b9050600073ffffffffffffffffffffffffffffffffffffffff168373ffffffffffffffffffffffffffffffffffffffff161461144457611443818486611d82565b5b600073ffffffffffffffffffffffffffffffffffffffff168173ffffffffffffffffffffffffffffffffffffffff16146114d557611486600085600080611bbd565b6001600360008373ffffffffffffffffffffffffffffffffffffffff1673ffffffffffffffffffffffffffffffffffffffff168152602001908152602001600020600082825403925050819055505b600073ffffffffffffffffffffffffffffffffffffffff168573ffffffffffffffffffffffffffffffffffffffff1614611558576001600360008773ffffffffffffffffffffffffffffffffffffffff1673ffffffffffffffffffffffffffffffffffffffff168152602001908152602001600020600082825401925050819055505b846002600086815260200190815260200160002060006101000a81548173ffffffffffffffffffffffffffffffffffffffff021916908373ffffffffffffffffffffffffffffffffffffffff160217905550838573ffffffffffffffffffffffffffffffffffffffff168273ffffffffffffffffffffffffffffffffffffffff167fddf252ad1be2c89b69c2b068fc378daa952ba7f163c4a11628f55a4df523b3ef60405160405180910390a4809150509392505050565b6116186113dc565b73ffffffffffffffffffffffffffffffffffffffff16611636610ddb565b73ffffffffffffffffffffffffffffffffffffffff1614611695576116596113dc565b6040517f118cdaa700000000000000000000000000000000000000000000000000000000815260040161168c919061239c565b60405180910390fd5b565b6116b1828260405180602001604052806000815250611e46565b5050565b6000600660009054906101000a900473ffffffffffffffffffffffffffffffffffffffff16905081600660006101000a81548173ffffffffffffffffffffffffffffffffffffffff021916908373ffffffffffffffffffffffffffffffffffffffff1602179055508173ffffffffffffffffffffffffffffffffffffffff168173ffffffffffffffffffffffffffffffffffffffff167f8be0079c531659141344cd1fd0a4f28419497f9722a3daafe3b4186f6b6457e060405160405180910390a35050565b600073ffffffffffffffffffffffffffffffffffffffff168273ffffffffffffffffffffffffffffffffffffffff16036117ec57816040517f5b08ba180000000000000000000000000000000000000000000000000000000081526004016117e3919061239c565b60405180910390fd5b80600560008573ffffffffffffffffffffffffffffffffffffffff1673ffffffffffffffffffffffffffffffffffffffff16815260200190815260200160002060008473ffffffffffffffffffffffffffffffffffffffff1673ffffffffffffffffffffffffffffffffffffffff16815260200190815260200160002060006101000a81548160ff0219169083151502179055508173ffffffffffffffffffffffffffffffffffffffff168373ffffffffffffffffffffffffffffffffffffffff167f17307eab39ab6107e8899845ad3d59bd9653f200f220920489ca2b5937696c31836040516118dd919061222b565b60405180910390a3505050565b60008373ffffffffffffffffffffffffffffffffffffffff163b1115611a94578273ffffffffffffffffffffffffffffffffffffffff1663150b7a02868685856040518563ffffffff1660e01b81526004016119499493929190612ddc565b6020604051808303816000875af192505050801561198557506040513d601f19601f820116820180604052508101906119829190612e3d565b60015b611a09573d80600081146119b5576040519150601f19603f3d011682016040523d82523d6000602084013e6119ba565b606091505b506000815103611a0157836040517f64a0ae920000000000000000000000000000000000000000000000000000000081526004016119f8919061239c565b60405180910390fd5b805160208201fd5b63150b7a0260e01b7bffffffffffffffffffffffffffffffffffffffffffffffffffffffff1916817bffffffffffffffffffffffffffffffffffffffffffffffffffffffff191614611a9257836040517f64a0ae92000000000000000000000000000000000000000000000000000000008152600401611a89919061239c565b60405180910390fd5b505b5050505050565b606060405180602001604052806000815250905090565b606060006001611ac184611e6a565b01905060008167ffffffffffffffff811115611ae057611adf61257a565b5b6040519080825280601f01601f191660200182016040528015611b125781602001600182028036833780820191505090505b509050600082602083010190505b600115611b75578080600190039150507f3031323334353637383961626364656600000000000000000000000000000000600a86061a8153600a8581611b6957611b68612e6a565b5b04945060008503611b20575b819350505050919050565b60006002600083815260200190815260200160002060009054906101000a900473ffffffffffffffffffffffffffffffffffffffff169050919050565b8080611bf65750600073ffffffffffffffffffffffffffffffffffffffff168273ffffffffffffffffffffffffffffffffffffffff1614155b15611d2a576000611c0684611317565b9050600073ffffffffffffffffffffffffffffffffffffffff168373ffffffffffffffffffffffffffffffffffffffff1614158015611c7157508273ffffffffffffffffffffffffffffffffffffffff168173ffffffffffffffffffffffffffffffffffffffff1614155b8015611c845750611c828184611193565b155b15611cc657826040517fa9fbf51f000000000000000000000000000000000000000000000000000000008152600401611cbd919061239c565b60405180910390fd5b8115611d2857838573ffffffffffffffffffffffffffffffffffffffff168273ffffffffffffffffffffffffffffffffffffffff167f8c5be1e5ebec7d5bd14f71427d1e84f3dd0314c0f7b2291e5b200ac8c7c3b92560405160405180910390a45b505b836004600085815260200190815260200160002060006101000a81548173ffffffffffffffffffffffffffffffffffffffff021916908373ffffffffffffffffffffffffffffffffffffffff16021790555050505050565b611d8d838383611fbd565b611e4157600073ffffffffffffffffffffffffffffffffffffffff168373ffffffffffffffffffffffffffffffffffffffff1603611e0257806040517f7e273289000000000000000000000000000000000000000000000000000000008152600401611df99190612432565b60405180910390fd5b81816040517f177e802f000000000000000000000000000000000000000000000000000000008152600401611e38929190612e99565b60405180910390fd5b505050565b611e50838361207e565b611e65611e5b6113dc565b60008585856118ea565b505050565b600080600090507a184f03e93ff9f4daa797ed6e38ed64bf6a1f0100000000000000008310611ec8577a184f03e93ff9f4daa797ed6e38ed64bf6a1f0100000000000000008381611ebe57611ebd612e6a565b5b0492506040810190505b6d04ee2d6d415b85acef81000000008310611f05576d04ee2d6d415b85acef81000000008381611efb57611efa612e6a565b5b0492506020810190505b662386f26fc100008310611f3457662386f26fc100008381611f2a57611f29612e6a565b5b0492506010810190505b6305f5e1008310611f5d576305f5e1008381611f5357611f52612e6a565b5b0492506008810190505b6127108310611f82576127108381611f7857611f77612e6a565b5b0492506004810190505b60648310611fa55760648381611f9b57611f9a612e6a565b5b0492506002810190505b600a8310611fb4576001810190505b80915050919050565b60008073ffffffffffffffffffffffffffffffffffffffff168373ffffffffffffffffffffffffffffffffffffffff161415801561207557508273ffffffffffffffffffffffffffffffffffffffff168473ffffffffffffffffffffffffffffffffffffffff16148061203657506120358484611193565b5b8061207457508273ffffffffffffffffffffffffffffffffffffffff1661205c8361139f565b73ffffffffffffffffffffffffffffffffffffffff16145b5b90509392505050565b600073ffffffffffffffffffffffffffffffffffffffff168273ffffffffffffffffffffffffffffffffffffffff16036120f05760006040517f64a0ae920000000000000000000000000000000000000000000000000000000081526004016120e7919061239c565b60405180910390fd5b60006120fe838360006113f6565b9050600073ffffffffffffffffffffffffffffffffffffffff168173ffffffffffffffffffffffffffffffffffffffff16146121725760006040517f73c6ac6e000000000000000000000000000000000000000000000000000000008152600401612169919061239c565b60405180910390fd5b505050565b6000604051905090565b600080fd5b600080fd5b60007fffffffff0000000000000000000000000000000000000000000000000000000082169050919050565b6121c08161218b565b81146121cb57600080fd5b50565b6000813590506121dd816121b7565b92915050565b6000602082840312156121f9576121f8612181565b5b6000612207848285016121ce565b91505092915050565b60008115159050919050565b61222581612210565b82525050565b6000602082019050612240600083018461221c565b92915050565b600081519050919050565b600082825260208201905092915050565b60005b83811015612280578082015181840152602081019050612265565b60008484015250505050565b6000601f19601f8301169050919050565b60006122a882612246565b6122b28185612251565b93506122c2818560208601612262565b6122cb8161228c565b840191505092915050565b600060208201905081810360008301526122f0818461229d565b905092915050565b6000819050919050565b61230b816122f8565b811461231657600080fd5b50565b60008135905061232881612302565b92915050565b60006020828403121561234457612343612181565b5b600061235284828501612319565b91505092915050565b600073ffffffffffffffffffffffffffffffffffffffff82169050919050565b60006123868261235b565b9050919050565b6123968161237b565b82525050565b60006020820190506123b1600083018461238d565b92915050565b6123c08161237b565b81146123cb57600080fd5b50565b6000813590506123dd816123b7565b92915050565b600080604083850312156123fa576123f9612181565b5b6000612408858286016123ce565b925050602061241985828601612319565b9150509250929050565b61242c816122f8565b82525050565b60006020820190506124476000830184612423565b92915050565b60008060006060848603121561246657612465612181565b5b6000612474868287016123ce565b9350506020612485868287016123ce565b925050604061249686828701612319565b9150509250925092565b6000602082840312156124b6576124b5612181565b5b60006124c4848285016123ce565b91505092915050565b6124d681612210565b81146124e157600080fd5b50565b6000813590506124f3816124cd565b92915050565b600080604083850312156125105761250f612181565b5b600061251e858286016123ce565b925050602061252f858286016124e4565b9150509250929050565b600060608201905061254e600083018661221c565b61255b6020830185612423565b612568604083018461238d565b949350505050565b600080fd5b600080fd5b7f4e487b7100000000000000000000000000000000000000000000000000000000600052604160045260246000fd5b6125b28261228c565b810181811067ffffffffffffffff821117156125d1576125d061257a565b5b80604052505050565b60006125e4612177565b90506125f082826125a9565b919050565b600067ffffffffffffffff8211156126105761260f61257a565b5b6126198261228c565b9050602081019050919050565b82818337600083830152505050565b6000612648612643846125f5565b6125da565b90508281526020810184848401111561266457612663612575565b5b61266f848285612626565b509392505050565b600082601f83011261268c5761268b612570565b5b813561269c848260208601612635565b91505092915050565b600080600080608085870312156126bf576126be612181565b5b60006126cd878288016123ce565b94505060206126de878288016123ce565b93505060406126ef87828801612319565b925050606085013567ffffffffffffffff8111156127105761270f612186565b5b61271c87828801612677565b91505092959194509250565b6000806040838503121561273f5761273e612181565b5b600061274d85828601612319565b925050602061275e85828601612319565b9150509250929050565b6000806040838503121561277f5761277e612181565b5b600061278d858286016123ce565b925050602061279e858286016123ce565b9150509250929050565b7f4e487b7100000000000000000000000000000000000000000000000000000000600052602260045260246000fd5b600060028204905060018216806127ef57607f821691505b602082108103612802576128016127a8565b5b50919050565b7f54686973207469636b6574206973206e6f7420666f722073616c652e00000000600082015250565b600061283e601c83612251565b915061284982612808565b602082019050919050565b6000602082019050818103600083015261286d81612831565b9050919050565b7f496e636f72726563742070726963652e00000000000000000000000000000000600082015250565b60006128aa601083612251565b91506128b582612874565b602082019050919050565b600060208201905081810360008301526128d98161289d565b9050919050565b600081905092915050565b50565b60006128fb6000836128e0565b9150612906826128eb565b600082019050919050565b600061291c826128ee565b9150819050919050565b7f5472616e7366657220746f2073656c6c6572206661696c65642e000000000000600082015250565b600061295c601a83612251565b915061296782612926565b602082019050919050565b6000602082019050818103600083015261298b8161294f565b9050919050565b60006080820190506129a76000830187612423565b6129b46020830186612423565b6129c1604083018561238d565b6129ce606083018461238d565b95945050505050565b60006060820190506129ec600083018661238d565b6129f96020830185612423565b612a06604083018461238d565b949350505050565b7f5769746864726177206661696c65642e00000000000000000000000000000000600082015250565b6000612a44601083612251565b9150612a4f82612a0e565b602082019050919050565b60006020820190508181036000830152612a7381612a37565b9050919050565b7f536f7272792c2074686973206576656e7420697320736f6c64206f75742e0000600082015250565b6000612ab0601e83612251565b9150612abb82612a7a565b602082019050919050565b60006020820190508181036000830152612adf81612aa3565b9050919050565b7f496e636f7272656374207469636b65742070726963652e000000000000000000600082015250565b6000612b1c601783612251565b9150612b2782612ae6565b602082019050919050565b60006020820190508181036000830152612b4b81612b0f565b9050919050565b7f4e487b7100000000000000000000000000000000000000000000000000000000600052601160045260246000fd5b6000612b8c826122f8565b91507fffffffffffffffffffffffffffffffffffffffffffffffffffffffffffffffff8203612bbe57612bbd612b52565b5b600182019050919050565b6000604082019050612bde6000830185612423565b612beb602083018461238d565b9392505050565b600081905092915050565b6000612c0882612246565b612c128185612bf2565b9350612c22818560208601612262565b80840191505092915050565b6000612c3a8285612bfd565b9150612c468284612bfd565b91508190509392505050565b7f596f7520646f206e6f74206f776e2074686973207469636b65742e0000000000600082015250565b6000612c88601b83612251565b9150612c9382612c52565b602082019050919050565b60006020820190508181036000830152612cb781612c7b565b9050919050565b7f50726963652069732061626f76652074686520312e357820726573616c65206360008201527f61702e0000000000000000000000000000000000000000000000000000000000602082015250565b6000612d1a602383612251565b9150612d2582612cbe565b604082019050919050565b60006020820190508181036000830152612d4981612d0d565b9050919050565b6000606082019050612d656000830186612423565b612d726020830185612423565b612d7f604083018461238d565b949350505050565b600081519050919050565b600082825260208201905092915050565b6000612dae82612d87565b612db88185612d92565b9350612dc8818560208601612262565b612dd18161228c565b840191505092915050565b6000608082019050612df1600083018761238d565b612dfe602083018661238d565b612e0b6040830185612423565b8181036060830152612e1d8184612da3565b905095945050505050565b600081519050612e37816121b7565b92915050565b600060208284031215612e5357612e52612181565b5b6000612e6184828501612e28565b91505092915050565b7f4e487b7100000000000000000000000000000000000000000000000000000000600052601260045260246000fd5b6000604082019050612eae600083018561238d565b612ebb6020830184612423565b939250505056fea2646970667358221220bddca5333eac5419ffd1a7691b7c889a3824740046fa00ad6abe984e9e3fca2c64736f6c63430008180033",
  "linkReferences": {},
  "deployedLinkReferences": {}
}